{
  "contractName": "YunkieColection",
  "abi": [
    {
      "inputs": [],
      "stateMutability": "nonpayable",
      "type": "constructor"
    },
    {
      "anonymous": false,
      "inputs": [
        {
          "indexed": true,
          "internalType": "address",
          "name": "owner",
          "type": "address"
        },
        {
          "indexed": true,
          "internalType": "address",
          "name": "approved",
          "type": "address"
        },
        {
          "indexed": true,
          "internalType": "uint256",
          "name": "tokenId",
          "type": "uint256"
        }
      ],
      "name": "Approval",
      "type": "event"
    },
    {
      "anonymous": false,
      "inputs": [
        {
          "indexed": true,
          "internalType": "address",
          "name": "owner",
          "type": "address"
        },
        {
          "indexed": true,
          "internalType": "address",
          "name": "operator",
          "type": "address"
        },
        {
          "indexed": false,
          "internalType": "bool",
          "name": "approved",
          "type": "bool"
        }
      ],
      "name": "ApprovalForAll",
      "type": "event"
    },
    {
      "anonymous": false,
      "inputs": [
        {
          "indexed": true,
          "internalType": "address",
          "name": "previousOwner",
          "type": "address"
        },
        {
          "indexed": true,
          "internalType": "address",
          "name": "newOwner",
          "type": "address"
        }
      ],
      "name": "OwnershipTransferred",
      "type": "event"
    },
    {
      "anonymous": false,
      "inputs": [
        {
          "indexed": true,
          "internalType": "address",
          "name": "from",
          "type": "address"
        },
        {
          "indexed": true,
          "internalType": "address",
          "name": "to",
          "type": "address"
        },
        {
          "indexed": true,
          "internalType": "uint256",
          "name": "tokenId",
          "type": "uint256"
        }
      ],
      "name": "Transfer",
      "type": "event"
    },
    {
      "inputs": [],
      "name": "MAX_MINT_PER_TX",
      "outputs": [
        {
          "internalType": "uint256",
          "name": "",
          "type": "uint256"
        }
      ],
      "stateMutability": "view",
      "type": "function",
      "constant": true
    },
    {
      "inputs": [],
      "name": "MAX_PRESALE_SUPPLY",
      "outputs": [
        {
          "internalType": "uint256",
          "name": "",
          "type": "uint256"
        }
      ],
      "stateMutability": "view",
      "type": "function",
      "constant": true
    },
    {
      "inputs": [],
      "name": "MAX_SUPPLY",
      "outputs": [
        {
          "internalType": "uint256",
          "name": "",
          "type": "uint256"
        }
      ],
      "stateMutability": "view",
      "type": "function",
      "constant": true
    },
    {
      "inputs": [],
      "name": "a1",
      "outputs": [
        {
          "internalType": "address",
          "name": "",
          "type": "address"
        }
      ],
      "stateMutability": "view",
      "type": "function",
      "constant": true
    },
    {
      "inputs": [],
      "name": "a2",
      "outputs": [
        {
          "internalType": "address",
          "name": "",
          "type": "address"
        }
      ],
      "stateMutability": "view",
      "type": "function",
      "constant": true
    },
    {
      "inputs": [],
      "name": "a3",
      "outputs": [
        {
          "internalType": "address",
          "name": "",
          "type": "address"
        }
      ],
      "stateMutability": "view",
      "type": "function",
      "constant": true
    },
    {
      "inputs": [
        {
          "internalType": "address",
          "name": "to",
          "type": "address"
        },
        {
          "internalType": "uint256",
          "name": "tokenId",
          "type": "uint256"
        }
      ],
      "name": "approve",
      "outputs": [],
      "stateMutability": "nonpayable",
      "type": "function"
    },
    {
      "inputs": [
        {
          "internalType": "address",
          "name": "owner",
          "type": "address"
        }
      ],
      "name": "balanceOf",
      "outputs": [
        {
          "internalType": "uint256",
          "name": "",
          "type": "uint256"
        }
      ],
      "stateMutability": "view",
      "type": "function",
      "constant": true
    },
    {
      "inputs": [],
      "name": "baseTokenURI",
      "outputs": [
        {
          "internalType": "string",
          "name": "",
          "type": "string"
        }
      ],
      "stateMutability": "view",
      "type": "function",
      "constant": true
    },
    {
      "inputs": [
        {
          "internalType": "uint256",
          "name": "tokenId",
          "type": "uint256"
        }
      ],
      "name": "getApproved",
      "outputs": [
        {
          "internalType": "address",
          "name": "",
          "type": "address"
        }
      ],
      "stateMutability": "view",
      "type": "function",
      "constant": true
    },
    {
      "inputs": [],
      "name": "initial_price",
      "outputs": [
        {
          "internalType": "uint256",
          "name": "",
          "type": "uint256"
        }
      ],
      "stateMutability": "view",
      "type": "function",
      "constant": true
    },
    {
      "inputs": [
        {
          "internalType": "address",
          "name": "owner",
          "type": "address"
        },
        {
          "internalType": "address",
          "name": "operator",
          "type": "address"
        }
      ],
      "name": "isApprovedForAll",
      "outputs": [
        {
          "internalType": "bool",
          "name": "",
          "type": "bool"
        }
      ],
      "stateMutability": "view",
      "type": "function",
      "constant": true
    },
    {
      "inputs": [],
      "name": "name",
      "outputs": [
        {
          "internalType": "string",
          "name": "",
          "type": "string"
        }
      ],
      "stateMutability": "view",
      "type": "function",
      "constant": true
    },
    {
      "inputs": [],
      "name": "owner",
      "outputs": [
        {
          "internalType": "address",
          "name": "",
          "type": "address"
        }
      ],
      "stateMutability": "view",
      "type": "function",
      "constant": true
    },
    {
      "inputs": [
        {
          "internalType": "uint256",
          "name": "tokenId",
          "type": "uint256"
        }
      ],
      "name": "ownerOf",
      "outputs": [
        {
          "internalType": "address",
          "name": "",
          "type": "address"
        }
      ],
      "stateMutability": "view",
      "type": "function",
      "constant": true
    },
    {
      "inputs": [],
      "name": "presaleActive",
      "outputs": [
        {
          "internalType": "bool",
          "name": "",
          "type": "bool"
        }
      ],
      "stateMutability": "view",
      "type": "function",
      "constant": true
    },
    {
      "inputs": [],
      "name": "price",
      "outputs": [
        {
          "internalType": "uint256",
          "name": "",
          "type": "uint256"
        }
      ],
      "stateMutability": "view",
      "type": "function",
      "constant": true
    },
    {
      "inputs": [],
      "name": "renounceOwnership",
      "outputs": [],
      "stateMutability": "nonpayable",
      "type": "function"
    },
    {
      "inputs": [],
      "name": "reserved",
      "outputs": [
        {
          "internalType": "uint256",
          "name": "",
          "type": "uint256"
        }
      ],
      "stateMutability": "view",
      "type": "function",
      "constant": true
    },
    {
      "inputs": [
        {
          "internalType": "address",
          "name": "from",
          "type": "address"
        },
        {
          "internalType": "address",
          "name": "to",
          "type": "address"
        },
        {
          "internalType": "uint256",
          "name": "tokenId",
          "type": "uint256"
        }
      ],
      "name": "safeTransferFrom",
      "outputs": [],
      "stateMutability": "nonpayable",
      "type": "function"
    },
    {
      "inputs": [
        {
          "internalType": "address",
          "name": "from",
          "type": "address"
        },
        {
          "internalType": "address",
          "name": "to",
          "type": "address"
        },
        {
          "internalType": "uint256",
          "name": "tokenId",
          "type": "uint256"
        },
        {
          "internalType": "bytes",
          "name": "_data",
          "type": "bytes"
        }
      ],
      "name": "safeTransferFrom",
      "outputs": [],
      "stateMutability": "nonpayable",
      "type": "function"
    },
    {
      "inputs": [],
      "name": "saleActive",
      "outputs": [
        {
          "internalType": "bool",
          "name": "",
          "type": "bool"
        }
      ],
      "stateMutability": "view",
      "type": "function",
      "constant": true
    },
    {
      "inputs": [
        {
          "internalType": "address",
          "name": "operator",
          "type": "address"
        },
        {
          "internalType": "bool",
          "name": "approved",
          "type": "bool"
        }
      ],
      "name": "setApprovalForAll",
      "outputs": [],
      "stateMutability": "nonpayable",
      "type": "function"
    },
    {
      "inputs": [
        {
          "internalType": "bytes4",
          "name": "interfaceId",
          "type": "bytes4"
        }
      ],
      "name": "supportsInterface",
      "outputs": [
        {
          "internalType": "bool",
          "name": "",
          "type": "bool"
        }
      ],
      "stateMutability": "view",
      "type": "function",
      "constant": true
    },
    {
      "inputs": [],
      "name": "symbol",
      "outputs": [
        {
          "internalType": "string",
          "name": "",
          "type": "string"
        }
      ],
      "stateMutability": "view",
      "type": "function",
      "constant": true
    },
    {
      "inputs": [
        {
          "internalType": "uint256",
          "name": "index",
          "type": "uint256"
        }
      ],
      "name": "tokenByIndex",
      "outputs": [
        {
          "internalType": "uint256",
          "name": "",
          "type": "uint256"
        }
      ],
      "stateMutability": "view",
      "type": "function",
      "constant": true
    },
    {
      "inputs": [
        {
          "internalType": "address",
          "name": "owner",
          "type": "address"
        },
        {
          "internalType": "uint256",
          "name": "index",
          "type": "uint256"
        }
      ],
      "name": "tokenOfOwnerByIndex",
      "outputs": [
        {
          "internalType": "uint256",
          "name": "",
          "type": "uint256"
        }
      ],
      "stateMutability": "view",
      "type": "function",
      "constant": true
    },
    {
      "inputs": [
        {
          "internalType": "uint256",
          "name": "tokenId",
          "type": "uint256"
        }
      ],
      "name": "tokenURI",
      "outputs": [
        {
          "internalType": "string",
          "name": "",
          "type": "string"
        }
      ],
      "stateMutability": "view",
      "type": "function",
      "constant": true
    },
    {
      "inputs": [],
      "name": "totalSupply",
      "outputs": [
        {
          "internalType": "uint256",
          "name": "",
          "type": "uint256"
        }
      ],
      "stateMutability": "view",
      "type": "function",
      "constant": true
    },
    {
      "inputs": [
        {
          "internalType": "address",
          "name": "from",
          "type": "address"
        },
        {
          "internalType": "address",
          "name": "to",
          "type": "address"
        },
        {
          "internalType": "uint256",
          "name": "tokenId",
          "type": "uint256"
        }
      ],
      "name": "transferFrom",
      "outputs": [],
      "stateMutability": "nonpayable",
      "type": "function"
    },
    {
      "inputs": [
        {
          "internalType": "address",
          "name": "newOwner",
          "type": "address"
        }
      ],
      "name": "transferOwnership",
      "outputs": [],
      "stateMutability": "nonpayable",
      "type": "function"
    },
    {
      "inputs": [],
      "name": "whitelistActive",
      "outputs": [
        {
          "internalType": "bool",
          "name": "",
          "type": "bool"
        }
      ],
      "stateMutability": "view",
      "type": "function",
      "constant": true
    },
    {
      "inputs": [
        {
          "internalType": "address",
          "name": "",
          "type": "address"
        }
      ],
      "name": "whitelistReserved",
      "outputs": [
        {
          "internalType": "uint256",
          "name": "",
          "type": "uint256"
        }
      ],
      "stateMutability": "view",
      "type": "function",
      "constant": true
    },
    {
      "inputs": [
        {
          "internalType": "address",
          "name": "addr",
          "type": "address"
        }
      ],
      "name": "tokensOfOwner",
      "outputs": [
        {
          "internalType": "uint256[]",
          "name": "",
          "type": "uint256[]"
        }
      ],
      "stateMutability": "view",
      "type": "function",
      "constant": true
    },
    {
      "inputs": [
        {
          "internalType": "uint256",
          "name": "_amount",
          "type": "uint256"
        }
      ],
      "name": "mintWhitelist",
      "outputs": [],
      "stateMutability": "payable",
      "type": "function",
      "payable": true
    },
    {
      "inputs": [
        {
          "internalType": "uint256",
          "name": "_amount",
          "type": "uint256"
        }
      ],
      "name": "mintPresale",
      "outputs": [],
      "stateMutability": "payable",
      "type": "function",
      "payable": true
    },
    {
      "inputs": [
        {
          "internalType": "uint256",
          "name": "_amount",
          "type": "uint256"
        }
      ],
      "name": "mintToken",
      "outputs": [],
      "stateMutability": "payable",
      "type": "function",
      "payable": true
    },
    {
      "inputs": [
        {
          "internalType": "uint256",
          "name": "_amount",
          "type": "uint256"
        }
      ],
      "name": "mintReserved",
      "outputs": [],
      "stateMutability": "nonpayable",
      "type": "function"
    },
    {
      "inputs": [
        {
          "internalType": "address[]",
          "name": "_a",
          "type": "address[]"
        },
        {
          "internalType": "uint256[]",
          "name": "_amount",
          "type": "uint256[]"
        }
      ],
      "name": "editWhitelistReserved",
      "outputs": [],
      "stateMutability": "nonpayable",
      "type": "function"
    },
    {
      "inputs": [
        {
          "internalType": "bool",
          "name": "val",
          "type": "bool"
        }
      ],
      "name": "setWhitelistActive",
      "outputs": [],
      "stateMutability": "nonpayable",
      "type": "function"
    },
    {
      "inputs": [
        {
          "internalType": "bool",
          "name": "val",
          "type": "bool"
        }
      ],
      "name": "setPresaleActive",
      "outputs": [],
      "stateMutability": "nonpayable",
      "type": "function"
    },
    {
      "inputs": [
        {
          "internalType": "bool",
          "name": "val",
          "type": "bool"
        }
      ],
      "name": "setSaleActive",
      "outputs": [],
      "stateMutability": "nonpayable",
      "type": "function"
    },
    {
      "inputs": [
        {
          "internalType": "string",
          "name": "baseURI",
          "type": "string"
        }
      ],
      "name": "setBaseURI",
      "outputs": [],
      "stateMutability": "nonpayable",
      "type": "function"
    },
    {
      "inputs": [
        {
          "internalType": "uint256",
          "name": "newPrice",
          "type": "uint256"
        }
      ],
      "name": "setPrice",
      "outputs": [],
      "stateMutability": "nonpayable",
      "type": "function"
    },
    {
      "inputs": [
        {
          "internalType": "address[]",
          "name": "_a",
          "type": "address[]"
        }
      ],
      "name": "setAddresses",
      "outputs": [],
      "stateMutability": "nonpayable",
      "type": "function"
    },
    {
      "inputs": [
        {
          "internalType": "uint256",
          "name": "amount",
          "type": "uint256"
        }
      ],
      "name": "withdrawTeam",
      "outputs": [],
      "stateMutability": "payable",
      "type": "function",
      "payable": true
    }
  ],
  "bytecode": "0x60806040526000600a60146101000a81548160ff0219169083151502179055506000600a60156101000a81548160ff0219169083151502179055506000600a60166101000a81548160ff0219169083151502179055506005600b5566470de4df820000600c556040518060400160405280601581526020017f687474703a2f2f3135392e3232332e39392e34302f0000000000000000000000815250600e9080519060200190620000b29291906200025e565b50348015620000c057600080fd5b506040518060400160405280601081526020017f59756e6b696520436f6c656374696f6e000000000000000000000000000000008152506040518060400160405280600381526020017f594e4b00000000000000000000000000000000000000000000000000000000008152508160009080519060200190620001459291906200025e565b5080600190805190602001906200015e9291906200025e565b50505062000181620001756200019060201b60201c565b6200019860201b60201c565b600c54600d8190555062000373565b600033905090565b6000600a60009054906101000a900473ffffffffffffffffffffffffffffffffffffffff16905081600a60006101000a81548173ffffffffffffffffffffffffffffffffffffffff021916908373ffffffffffffffffffffffffffffffffffffffff1602179055508173ffffffffffffffffffffffffffffffffffffffff168173ffffffffffffffffffffffffffffffffffffffff167f8be0079c531659141344cd1fd0a4f28419497f9722a3daafe3b4186f6b6457e060405160405180910390a35050565b8280546200026c906200033d565b90600052602060002090601f016020900481019282620002905760008555620002dc565b82601f10620002ab57805160ff1916838001178555620002dc565b82800160010185558215620002dc579182015b82811115620002db578251825591602001919060010190620002be565b5b509050620002eb9190620002ef565b5090565b5b808211156200030a576000816000905550600101620002f0565b5090565b7f4e487b7100000000000000000000000000000000000000000000000000000000600052602260045260246000fd5b600060028204905060018216806200035657607f821691505b602082108114156200036d576200036c6200030e565b5b50919050565b61533e80620003836000396000f3fe60806040526004361061027d5760003560e01c80638462151c1161014f578063b88d4fde116100c1578063e985e9c51161007a578063e985e9c514610992578063f14c0bcc146109cf578063f2fde38b146109f8578063f759867a14610a21578063fd2b049214610a3d578063fe60d12c14610a595761027d565b8063b88d4fde14610893578063b9571721146108bc578063c3b754dc146108e5578063c634d0321461090e578063c87b56dd1461092a578063d547cfb7146109675761027d565b806395d89b411161011357806395d89b4114610795578063969e9d0c146107c05780639a5d140b146107eb578063a035b1fe14610814578063a22cb4651461083f578063ab3f5a1a146108685761027d565b80638462151c146106ae5780638da5cb5b146106eb5780638ecad7211461071657806391b7f5ed146107415780639426eef81461076a5761027d565b806342842e0e116101f357806368428a1b116101ac57806368428a1b1461059e5780636b8dc355146105c957806370a08231146105f4578063715018a61461063157806372e3a3eb14610648578063841718a6146106855761027d565b806342842e0e1461048b5780634618163e146104b45780634f6ccce7146104d057806353135ca01461050d57806355f804b3146105385780636352211e146105615761027d565b8063119552a111610245578063119552a11461037b57806318160ddd146103a657806323b872dd146103d15780632f745c59146103fa57806332cb6b0c146104375780633f8121a2146104625761027d565b806301ffc9a71461028257806302ce5813146102bf57806306fdde03146102ea578063081812fc14610315578063095ea7b314610352575b600080fd5b34801561028e57600080fd5b506102a960048036038101906102a4919061376f565b610a84565b6040516102b691906137b7565b60405180910390f35b3480156102cb57600080fd5b506102d4610afe565b6040516102e191906137b7565b60405180910390f35b3480156102f657600080fd5b506102ff610b11565b60405161030c919061386b565b60405180910390f35b34801561032157600080fd5b5061033c600480360381019061033791906138c3565b610ba3565b6040516103499190613931565b60405180910390f35b34801561035e57600080fd5b5061037960048036038101906103749190613978565b610c28565b005b34801561038757600080fd5b50610390610d40565b60405161039d9190613931565b60405180910390f35b3480156103b257600080fd5b506103bb610d66565b6040516103c891906139c7565b60405180910390f35b3480156103dd57600080fd5b506103f860048036038101906103f391906139e2565b610d73565b005b34801561040657600080fd5b50610421600480360381019061041c9190613978565b610dd3565b60405161042e91906139c7565b60405180910390f35b34801561044357600080fd5b5061044c610e78565b60405161045991906139c7565b60405180910390f35b34801561046e57600080fd5b5061048960048036038101906104849190613a61565b610e7d565b005b34801561049757600080fd5b506104b260048036038101906104ad91906139e2565b610f16565b005b6104ce60048036038101906104c991906138c3565b610f36565b005b3480156104dc57600080fd5b506104f760048036038101906104f291906138c3565b611181565b60405161050491906139c7565b60405180910390f35b34801561051957600080fd5b506105226111f2565b60405161052f91906137b7565b60405180910390f35b34801561054457600080fd5b5061055f600480360381019061055a9190613bc3565b611205565b005b34801561056d57600080fd5b50610588600480360381019061058391906138c3565b61129b565b6040516105959190613931565b60405180910390f35b3480156105aa57600080fd5b506105b361134d565b6040516105c091906137b7565b60405180910390f35b3480156105d557600080fd5b506105de611360565b6040516105eb91906139c7565b60405180910390f35b34801561060057600080fd5b5061061b60048036038101906106169190613c0c565b611365565b60405161062891906139c7565b60405180910390f35b34801561063d57600080fd5b5061064661141d565b005b34801561065457600080fd5b5061066f600480360381019061066a9190613c0c565b6114a5565b60405161067c91906139c7565b60405180910390f35b34801561069157600080fd5b506106ac60048036038101906106a79190613a61565b6114bd565b005b3480156106ba57600080fd5b506106d560048036038101906106d09190613c0c565b611556565b6040516106e29190613cf7565b60405180910390f35b3480156106f757600080fd5b50610700611604565b60405161070d9190613931565b60405180910390f35b34801561072257600080fd5b5061072b61162e565b60405161073891906139c7565b60405180910390f35b34801561074d57600080fd5b50610768600480360381019061076391906138c3565b611633565b005b34801561077657600080fd5b5061077f6116b9565b60405161078c9190613931565b60405180910390f35b3480156107a157600080fd5b506107aa6116df565b6040516107b7919061386b565b60405180910390f35b3480156107cc57600080fd5b506107d5611771565b6040516107e29190613931565b60405180910390f35b3480156107f757600080fd5b50610812600480360381019061080d91906138c3565b611797565b005b34801561082057600080fd5b506108296118b5565b60405161083691906139c7565b60405180910390f35b34801561084b57600080fd5b5061086660048036038101906108619190613d19565b6118bb565b005b34801561087457600080fd5b5061087d6118d1565b60405161088a91906139c7565b60405180910390f35b34801561089f57600080fd5b506108ba60048036038101906108b59190613dfa565b6118d7565b005b3480156108c857600080fd5b506108e360048036038101906108de9190613f45565b611939565b005b3480156108f157600080fd5b5061090c60048036038101906109079190613a61565b611acc565b005b610928600480360381019061092391906138c3565b611b65565b005b34801561093657600080fd5b50610951600480360381019061094c91906138c3565b611ce6565b60405161095e919061386b565b60405180910390f35b34801561097357600080fd5b5061097c611d8d565b604051610989919061386b565b60405180910390f35b34801561099e57600080fd5b506109b960048036038101906109b49190613f8e565b611e1b565b6040516109c691906137b7565b60405180910390f35b3480156109db57600080fd5b506109f660048036038101906109f19190614091565b611eaf565b005b348015610a0457600080fd5b50610a1f6004803603810190610a1a9190613c0c565b611fc7565b005b610a3b6004803603810190610a3691906138c3565b6120bf565b005b610a576004803603810190610a5291906138c3565b612240565b005b348015610a6557600080fd5b50610a6e612415565b604051610a7b91906139c7565b60405180910390f35b60007f780e9d63000000000000000000000000000000000000000000000000000000007bffffffffffffffffffffffffffffffffffffffffffffffffffffffff1916827bffffffffffffffffffffffffffffffffffffffffffffffffffffffff19161480610af75750610af68261241b565b5b9050919050565b600a60159054906101000a900460ff1681565b606060008054610b2090614138565b80601f0160208091040260200160405190810160405280929190818152602001828054610b4c90614138565b8015610b995780601f10610b6e57610100808354040283529160200191610b99565b820191906000526020600020905b815481529060010190602001808311610b7c57829003601f168201915b5050505050905090565b6000610bae826124fd565b610bed576040517f08c379a0000000000000000000000000000000000000000000000000000000008152600401610be4906141dc565b60405180910390fd5b6004600083815260200190815260200160002060009054906101000a900473ffffffffffffffffffffffffffffffffffffffff169050919050565b6000610c338261129b565b90508073ffffffffffffffffffffffffffffffffffffffff168373ffffffffffffffffffffffffffffffffffffffff161415610ca4576040517f08c379a0000000000000000000000000000000000000000000000000000000008152600401610c9b9061426e565b60405180910390fd5b8073ffffffffffffffffffffffffffffffffffffffff16610cc3612569565b73ffffffffffffffffffffffffffffffffffffffff161480610cf25750610cf181610cec612569565b611e1b565b5b610d31576040517f08c379a0000000000000000000000000000000000000000000000000000000008152600401610d2890614300565b60405180910390fd5b610d3b8383612571565b505050565b600f60009054906101000a900473ffffffffffffffffffffffffffffffffffffffff1681565b6000600880549050905090565b610d84610d7e612569565b8261262a565b610dc3576040517f08c379a0000000000000000000000000000000000000000000000000000000008152600401610dba90614392565b60405180910390fd5b610dce838383612708565b505050565b6000610dde83611365565b8210610e1f576040517f08c379a0000000000000000000000000000000000000000000000000000000008152600401610e1690614424565b60405180910390fd5b600660008473ffffffffffffffffffffffffffffffffffffffff1673ffffffffffffffffffffffffffffffffffffffff168152602001908152602001600020600083815260200190815260200160002054905092915050565b601481565b610e85612569565b73ffffffffffffffffffffffffffffffffffffffff16610ea3611604565b73ffffffffffffffffffffffffffffffffffffffff1614610ef9576040517f08c379a0000000000000000000000000000000000000000000000000000000008152600401610ef090614490565b60405180910390fd5b80600a60166101000a81548160ff02191690831515021790555050565b610f31838383604051806020016040528060008152506118d7565b505050565b6000610f40610d66565b90506000601260003373ffffffffffffffffffffffffffffffffffffffff1673ffffffffffffffffffffffffffffffffffffffff168152602001908152602001600020549050600a60159054906101000a900460ff16610fd5576040517f08c379a0000000000000000000000000000000000000000000000000000000008152600401610fcc906144fc565b60405180910390fd5b60008111611018576040517f08c379a000000000000000000000000000000000000000000000000000000000815260040161100f9061458e565b60405180910390fd5b8083111561105b576040517f08c379a0000000000000000000000000000000000000000000000000000000008152600401611052906145fa565b60405180910390fd5b601483836110699190614649565b11156110aa576040517f08c379a00000000000000000000000000000000000000000000000000000000081526004016110a1906146eb565b60405180910390fd5b82600d546110b8919061470b565b34146110f9576040517f08c379a00000000000000000000000000000000000000000000000000000000081526004016110f0906147b1565b60405180910390fd5b828161110591906147d1565b601260003373ffffffffffffffffffffffffffffffffffffffff1673ffffffffffffffffffffffffffffffffffffffff1681526020019081526020016000208190555060005b8381101561117b576111683382856111639190614649565b612964565b808061117390614805565b91505061114b565b50505050565b600061118b610d66565b82106111cc576040517f08c379a00000000000000000000000000000000000000000000000000000000081526004016111c3906148c0565b60405180910390fd5b600882815481106111e0576111df6148e0565b5b90600052602060002001549050919050565b600a60169054906101000a900460ff1681565b61120d612569565b73ffffffffffffffffffffffffffffffffffffffff1661122b611604565b73ffffffffffffffffffffffffffffffffffffffff1614611281576040517f08c379a000000000000000000000000000000000000000000000000000000000815260040161127890614490565b60405180910390fd5b80600e9080519060200190611297929190613660565b5050565b6000806002600084815260200190815260200160002060009054906101000a900473ffffffffffffffffffffffffffffffffffffffff169050600073ffffffffffffffffffffffffffffffffffffffff168173ffffffffffffffffffffffffffffffffffffffff161415611344576040517f08c379a000000000000000000000000000000000000000000000000000000000815260040161133b90614981565b60405180910390fd5b80915050919050565b600a60149054906101000a900460ff1681565b600581565b60008073ffffffffffffffffffffffffffffffffffffffff168273ffffffffffffffffffffffffffffffffffffffff1614156113d6576040517f08c379a00000000000000000000000000000000000000000000000000000000081526004016113cd90614a13565b60405180910390fd5b600360008373ffffffffffffffffffffffffffffffffffffffff1673ffffffffffffffffffffffffffffffffffffffff168152602001908152602001600020549050919050565b611425612569565b73ffffffffffffffffffffffffffffffffffffffff16611443611604565b73ffffffffffffffffffffffffffffffffffffffff1614611499576040517f08c379a000000000000000000000000000000000000000000000000000000000815260040161149090614490565b60405180910390fd5b6114a36000612982565b565b60126020528060005260406000206000915090505481565b6114c5612569565b73ffffffffffffffffffffffffffffffffffffffff166114e3611604565b73ffffffffffffffffffffffffffffffffffffffff1614611539576040517f08c379a000000000000000000000000000000000000000000000000000000000815260040161153090614490565b60405180910390fd5b80600a60146101000a81548160ff02191690831515021790555050565b6060600061156383611365565b905060008167ffffffffffffffff81111561158157611580613a98565b5b6040519080825280602002602001820160405280156115af5781602001602082028036833780820191505090505b50905060005b828110156115f9576115c78582610dd3565b8282815181106115da576115d96148e0565b5b60200260200101818152505080806115f190614805565b9150506115b5565b508092505050919050565b6000600a60009054906101000a900473ffffffffffffffffffffffffffffffffffffffff16905090565b600281565b61163b612569565b73ffffffffffffffffffffffffffffffffffffffff16611659611604565b73ffffffffffffffffffffffffffffffffffffffff16146116af576040517f08c379a00000000000000000000000000000000000000000000000000000000081526004016116a690614490565b60405180910390fd5b80600d8190555050565b601160009054906101000a900473ffffffffffffffffffffffffffffffffffffffff1681565b6060600180546116ee90614138565b80601f016020809104026020016040519081016040528092919081815260200182805461171a90614138565b80156117675780601f1061173c57610100808354040283529160200191611767565b820191906000526020600020905b81548152906001019060200180831161174a57829003601f168201915b5050505050905090565b601060009054906101000a900473ffffffffffffffffffffffffffffffffffffffff1681565b61179f612569565b73ffffffffffffffffffffffffffffffffffffffff166117bd611604565b73ffffffffffffffffffffffffffffffffffffffff1614611813576040517f08c379a000000000000000000000000000000000000000000000000000000000815260040161180a90614490565b60405180910390fd5b600b54811115611858576040517f08c379a000000000000000000000000000000000000000000000000000000000815260040161184f90614aa5565b60405180910390fd5b80600b600082825461186a91906147d1565b92505081905550600061187b610d66565b905060005b828110156118b05761189d3382846118989190614649565b612964565b80806118a890614805565b915050611880565b505050565b600d5481565b6118cd6118c6612569565b8383612a48565b5050565b600c5481565b6118e86118e2612569565b8361262a565b611927576040517f08c379a000000000000000000000000000000000000000000000000000000000815260040161191e90614392565b60405180910390fd5b61193384848484612bb5565b50505050565b611941612569565b73ffffffffffffffffffffffffffffffffffffffff1661195f611604565b73ffffffffffffffffffffffffffffffffffffffff16146119b5576040517f08c379a00000000000000000000000000000000000000000000000000000000081526004016119ac90614490565b60405180910390fd5b806000815181106119c9576119c86148e0565b5b6020026020010151600f60006101000a81548173ffffffffffffffffffffffffffffffffffffffff021916908373ffffffffffffffffffffffffffffffffffffffff16021790555080600181518110611a2557611a246148e0565b5b6020026020010151601060006101000a81548173ffffffffffffffffffffffffffffffffffffffff021916908373ffffffffffffffffffffffffffffffffffffffff16021790555080600281518110611a8157611a806148e0565b5b6020026020010151601160006101000a81548173ffffffffffffffffffffffffffffffffffffffff021916908373ffffffffffffffffffffffffffffffffffffffff16021790555050565b611ad4612569565b73ffffffffffffffffffffffffffffffffffffffff16611af2611604565b73ffffffffffffffffffffffffffffffffffffffff1614611b48576040517f08c379a0000000000000000000000000000000000000000000000000000000008152600401611b3f90614490565b60405180910390fd5b80600a60156101000a81548160ff02191690831515021790555050565b6000611b6f610d66565b9050600a60149054906101000a900460ff16611bc0576040517f08c379a0000000000000000000000000000000000000000000000000000000008152600401611bb790614b11565b60405180910390fd5b600082118015611bd1575060028211155b611c10576040517f08c379a0000000000000000000000000000000000000000000000000000000008152600401611c0790614ba3565b60405180910390fd5b60148282611c1e9190614649565b1115611c5f576040517f08c379a0000000000000000000000000000000000000000000000000000000008152600401611c56906146eb565b60405180910390fd5b81600d54611c6d919061470b565b3414611cae576040517f08c379a0000000000000000000000000000000000000000000000000000000008152600401611ca5906147b1565b60405180910390fd5b60005b82811015611ce157611cce338284611cc99190614649565b612964565b8080611cd990614805565b915050611cb1565b505050565b6060611cf1826124fd565b611d30576040517f08c379a0000000000000000000000000000000000000000000000000000000008152600401611d2790614c35565b60405180910390fd5b6000611d3a612c11565b90506000815111611d5a5760405180602001604052806000815250611d85565b80611d6484612ca3565b604051602001611d75929190614c91565b6040516020818303038152906040525b915050919050565b600e8054611d9a90614138565b80601f0160208091040260200160405190810160405280929190818152602001828054611dc690614138565b8015611e135780601f10611de857610100808354040283529160200191611e13565b820191906000526020600020905b815481529060010190602001808311611df657829003601f168201915b505050505081565b6000600560008473ffffffffffffffffffffffffffffffffffffffff1673ffffffffffffffffffffffffffffffffffffffff16815260200190815260200160002060008373ffffffffffffffffffffffffffffffffffffffff1673ffffffffffffffffffffffffffffffffffffffff16815260200190815260200160002060009054906101000a900460ff16905092915050565b611eb7612569565b73ffffffffffffffffffffffffffffffffffffffff16611ed5611604565b73ffffffffffffffffffffffffffffffffffffffff1614611f2b576040517f08c379a0000000000000000000000000000000000000000000000000000000008152600401611f2290614490565b60405180910390fd5b60005b8251811015611fc257818181518110611f4a57611f496148e0565b5b602002602001015160126000858481518110611f6957611f686148e0565b5b602002602001015173ffffffffffffffffffffffffffffffffffffffff1673ffffffffffffffffffffffffffffffffffffffff168152602001908152602001600020819055508080611fba90614805565b915050611f2e565b505050565b611fcf612569565b73ffffffffffffffffffffffffffffffffffffffff16611fed611604565b73ffffffffffffffffffffffffffffffffffffffff1614612043576040517f08c379a000000000000000000000000000000000000000000000000000000000815260040161203a90614490565b60405180910390fd5b600073ffffffffffffffffffffffffffffffffffffffff168173ffffffffffffffffffffffffffffffffffffffff1614156120b3576040517f08c379a00000000000000000000000000000000000000000000000000000000081526004016120aa90614d27565b60405180910390fd5b6120bc81612982565b50565b60006120c9610d66565b9050600a60169054906101000a900460ff1661211a576040517f08c379a000000000000000000000000000000000000000000000000000000000815260040161211190614b11565b60405180910390fd5b60008211801561212b575060028211155b61216a576040517f08c379a000000000000000000000000000000000000000000000000000000000815260040161216190614db9565b60405180910390fd5b600582826121789190614649565b11156121b9576040517f08c379a00000000000000000000000000000000000000000000000000000000081526004016121b0906146eb565b60405180910390fd5b81600d546121c7919061470b565b3414612208576040517f08c379a00000000000000000000000000000000000000000000000000000000081526004016121ff906147b1565b60405180910390fd5b60005b8281101561223b576122283382846122239190614649565b612964565b808061223390614805565b91505061220b565b505050565b612248612569565b73ffffffffffffffffffffffffffffffffffffffff16612266611604565b73ffffffffffffffffffffffffffffffffffffffff16146122bc576040517f08c379a00000000000000000000000000000000000000000000000000000000081526004016122b390614490565b60405180910390fd5b60006064826122cb9190614e08565b9050600f60009054906101000a900473ffffffffffffffffffffffffffffffffffffffff1673ffffffffffffffffffffffffffffffffffffffff166108fc603c83612316919061470b565b9081150290604051600060405180830381858888f1935050505061233957600080fd5b601060009054906101000a900473ffffffffffffffffffffffffffffffffffffffff1673ffffffffffffffffffffffffffffffffffffffff166108fc601e83612382919061470b565b9081150290604051600060405180830381858888f193505050506123a557600080fd5b601160009054906101000a900473ffffffffffffffffffffffffffffffffffffffff1673ffffffffffffffffffffffffffffffffffffffff166108fc600a836123ee919061470b565b9081150290604051600060405180830381858888f1935050505061241157600080fd5b5050565b600b5481565b60007f80ac58cd000000000000000000000000000000000000000000000000000000007bffffffffffffffffffffffffffffffffffffffffffffffffffffffff1916827bffffffffffffffffffffffffffffffffffffffffffffffffffffffff191614806124e657507f5b5e139f000000000000000000000000000000000000000000000000000000007bffffffffffffffffffffffffffffffffffffffffffffffffffffffff1916827bffffffffffffffffffffffffffffffffffffffffffffffffffffffff1916145b806124f657506124f582612e04565b5b9050919050565b60008073ffffffffffffffffffffffffffffffffffffffff166002600084815260200190815260200160002060009054906101000a900473ffffffffffffffffffffffffffffffffffffffff1673ffffffffffffffffffffffffffffffffffffffff1614159050919050565b600033905090565b816004600083815260200190815260200160002060006101000a81548173ffffffffffffffffffffffffffffffffffffffff021916908373ffffffffffffffffffffffffffffffffffffffff160217905550808273ffffffffffffffffffffffffffffffffffffffff166125e48361129b565b73ffffffffffffffffffffffffffffffffffffffff167f8c5be1e5ebec7d5bd14f71427d1e84f3dd0314c0f7b2291e5b200ac8c7c3b92560405160405180910390a45050565b6000612635826124fd565b612674576040517f08c379a000000000000000000000000000000000000000000000000000000000815260040161266b90614eab565b60405180910390fd5b600061267f8361129b565b90508073ffffffffffffffffffffffffffffffffffffffff168473ffffffffffffffffffffffffffffffffffffffff1614806126ee57508373ffffffffffffffffffffffffffffffffffffffff166126d684610ba3565b73ffffffffffffffffffffffffffffffffffffffff16145b806126ff57506126fe8185611e1b565b5b91505092915050565b8273ffffffffffffffffffffffffffffffffffffffff166127288261129b565b73ffffffffffffffffffffffffffffffffffffffff161461277e576040517f08c379a000000000000000000000000000000000000000000000000000000000815260040161277590614f3d565b60405180910390fd5b600073ffffffffffffffffffffffffffffffffffffffff168273ffffffffffffffffffffffffffffffffffffffff1614156127ee576040517f08c379a00000000000000000000000000000000000000000000000000000000081526004016127e590614fcf565b60405180910390fd5b6127f9838383612e6e565b612804600082612571565b6001600360008573ffffffffffffffffffffffffffffffffffffffff1673ffffffffffffffffffffffffffffffffffffffff168152602001908152602001600020600082825461285491906147d1565b925050819055506001600360008473ffffffffffffffffffffffffffffffffffffffff1673ffffffffffffffffffffffffffffffffffffffff16815260200190815260200160002060008282546128ab9190614649565b92505081905550816002600083815260200190815260200160002060006101000a81548173ffffffffffffffffffffffffffffffffffffffff021916908373ffffffffffffffffffffffffffffffffffffffff160217905550808273ffffffffffffffffffffffffffffffffffffffff168473ffffffffffffffffffffffffffffffffffffffff167fddf252ad1be2c89b69c2b068fc378daa952ba7f163c4a11628f55a4df523b3ef60405160405180910390a4505050565b61297e828260405180602001604052806000815250612f82565b5050565b6000600a60009054906101000a900473ffffffffffffffffffffffffffffffffffffffff16905081600a60006101000a81548173ffffffffffffffffffffffffffffffffffffffff021916908373ffffffffffffffffffffffffffffffffffffffff1602179055508173ffffffffffffffffffffffffffffffffffffffff168173ffffffffffffffffffffffffffffffffffffffff167f8be0079c531659141344cd1fd0a4f28419497f9722a3daafe3b4186f6b6457e060405160405180910390a35050565b8173ffffffffffffffffffffffffffffffffffffffff168373ffffffffffffffffffffffffffffffffffffffff161415612ab7576040517f08c379a0000000000000000000000000000000000000000000000000000000008152600401612aae9061503b565b60405180910390fd5b80600560008573ffffffffffffffffffffffffffffffffffffffff1673ffffffffffffffffffffffffffffffffffffffff16815260200190815260200160002060008473ffffffffffffffffffffffffffffffffffffffff1673ffffffffffffffffffffffffffffffffffffffff16815260200190815260200160002060006101000a81548160ff0219169083151502179055508173ffffffffffffffffffffffffffffffffffffffff168373ffffffffffffffffffffffffffffffffffffffff167f17307eab39ab6107e8899845ad3d59bd9653f200f220920489ca2b5937696c3183604051612ba891906137b7565b60405180910390a3505050565b612bc0848484612708565b612bcc84848484612fdd565b612c0b576040517f08c379a0000000000000000000000000000000000000000000000000000000008152600401612c02906150cd565b60405180910390fd5b50505050565b6060600e8054612c2090614138565b80601f0160208091040260200160405190810160405280929190818152602001828054612c4c90614138565b8015612c995780601f10612c6e57610100808354040283529160200191612c99565b820191906000526020600020905b815481529060010190602001808311612c7c57829003601f168201915b5050505050905090565b60606000821415612ceb576040518060400160405280600181526020017f30000000000000000000000000000000000000000000000000000000000000008152509050612dff565b600082905060005b60008214612d1d578080612d0690614805565b915050600a82612d169190614e08565b9150612cf3565b60008167ffffffffffffffff811115612d3957612d38613a98565b5b6040519080825280601f01601f191660200182016040528015612d6b5781602001600182028036833780820191505090505b5090505b60008514612df857600182612d8491906147d1565b9150600a85612d9391906150ed565b6030612d9f9190614649565b60f81b818381518110612db557612db46148e0565b5b60200101907effffffffffffffffffffffffffffffffffffffffffffffffffffffffffffff1916908160001a905350600a85612df19190614e08565b9450612d6f565b8093505050505b919050565b60007f01ffc9a7000000000000000000000000000000000000000000000000000000007bffffffffffffffffffffffffffffffffffffffffffffffffffffffff1916827bffffffffffffffffffffffffffffffffffffffffffffffffffffffff1916149050919050565b612e79838383613174565b600073ffffffffffffffffffffffffffffffffffffffff168373ffffffffffffffffffffffffffffffffffffffff161415612ebc57612eb781613179565b612efb565b8173ffffffffffffffffffffffffffffffffffffffff168373ffffffffffffffffffffffffffffffffffffffff1614612efa57612ef983826131c2565b5b5b600073ffffffffffffffffffffffffffffffffffffffff168273ffffffffffffffffffffffffffffffffffffffff161415612f3e57612f398161332f565b612f7d565b8273ffffffffffffffffffffffffffffffffffffffff168273ffffffffffffffffffffffffffffffffffffffff1614612f7c57612f7b8282613400565b5b5b505050565b612f8c838361347f565b612f996000848484612fdd565b612fd8576040517f08c379a0000000000000000000000000000000000000000000000000000000008152600401612fcf906150cd565b60405180910390fd5b505050565b6000612ffe8473ffffffffffffffffffffffffffffffffffffffff1661364d565b15613167578373ffffffffffffffffffffffffffffffffffffffff1663150b7a02613027612569565b8786866040518563ffffffff1660e01b81526004016130499493929190615173565b602060405180830381600087803b15801561306357600080fd5b505af192505050801561309457506040513d601f19601f8201168201806040525081019061309191906151d4565b60015b613117573d80600081146130c4576040519150601f19603f3d011682016040523d82523d6000602084013e6130c9565b606091505b5060008151141561310f576040517f08c379a0000000000000000000000000000000000000000000000000000000008152600401613106906150cd565b60405180910390fd5b805181602001fd5b63150b7a0260e01b7bffffffffffffffffffffffffffffffffffffffffffffffffffffffff1916817bffffffffffffffffffffffffffffffffffffffffffffffffffffffff19161491505061316c565b600190505b949350505050565b505050565b6008805490506009600083815260200190815260200160002081905550600881908060018154018082558091505060019003906000526020600020016000909190919091505550565b600060016131cf84611365565b6131d991906147d1565b90506000600760008481526020019081526020016000205490508181146132be576000600660008673ffffffffffffffffffffffffffffffffffffffff1673ffffffffffffffffffffffffffffffffffffffff168152602001908152602001600020600084815260200190815260200160002054905080600660008773ffffffffffffffffffffffffffffffffffffffff1673ffffffffffffffffffffffffffffffffffffffff168152602001908152602001600020600084815260200190815260200160002081905550816007600083815260200190815260200160002081905550505b6007600084815260200190815260200160002060009055600660008573ffffffffffffffffffffffffffffffffffffffff1673ffffffffffffffffffffffffffffffffffffffff16815260200190815260200160002060008381526020019081526020016000206000905550505050565b6000600160088054905061334391906147d1565b9050600060096000848152602001908152602001600020549050600060088381548110613373576133726148e0565b5b906000526020600020015490508060088381548110613395576133946148e0565b5b9060005260206000200181905550816009600083815260200190815260200160002081905550600960008581526020019081526020016000206000905560088054806133e4576133e3615201565b5b6001900381819060005260206000200160009055905550505050565b600061340b83611365565b905081600660008573ffffffffffffffffffffffffffffffffffffffff1673ffffffffffffffffffffffffffffffffffffffff168152602001908152602001600020600083815260200190815260200160002081905550806007600084815260200190815260200160002081905550505050565b600073ffffffffffffffffffffffffffffffffffffffff168273ffffffffffffffffffffffffffffffffffffffff1614156134ef576040517f08c379a00000000000000000000000000000000000000000000000000000000081526004016134e69061527c565b60405180910390fd5b6134f8816124fd565b15613538576040517f08c379a000000000000000000000000000000000000000000000000000000000815260040161352f906152e8565b60405180910390fd5b61354460008383612e6e565b6001600360008473ffffffffffffffffffffffffffffffffffffffff1673ffffffffffffffffffffffffffffffffffffffff16815260200190815260200160002060008282546135949190614649565b92505081905550816002600083815260200190815260200160002060006101000a81548173ffffffffffffffffffffffffffffffffffffffff021916908373ffffffffffffffffffffffffffffffffffffffff160217905550808273ffffffffffffffffffffffffffffffffffffffff16600073ffffffffffffffffffffffffffffffffffffffff167fddf252ad1be2c89b69c2b068fc378daa952ba7f163c4a11628f55a4df523b3ef60405160405180910390a45050565b600080823b905060008111915050919050565b82805461366c90614138565b90600052602060002090601f01602090048101928261368e57600085556136d5565b82601f106136a757805160ff19168380011785556136d5565b828001600101855582156136d5579182015b828111156136d45782518255916020019190600101906136b9565b5b5090506136e291906136e6565b5090565b5b808211156136ff5760008160009055506001016136e7565b5090565b6000604051905090565b600080fd5b600080fd5b60007fffffffff0000000000000000000000000000000000000000000000000000000082169050919050565b61374c81613717565b811461375757600080fd5b50565b60008135905061376981613743565b92915050565b6000602082840312156137855761378461370d565b5b60006137938482850161375a565b91505092915050565b60008115159050919050565b6137b18161379c565b82525050565b60006020820190506137cc60008301846137a8565b92915050565b600081519050919050565b600082825260208201905092915050565b60005b8381101561380c5780820151818401526020810190506137f1565b8381111561381b576000848401525b50505050565b6000601f19601f8301169050919050565b600061383d826137d2565b61384781856137dd565b93506138578185602086016137ee565b61386081613821565b840191505092915050565b600060208201905081810360008301526138858184613832565b905092915050565b6000819050919050565b6138a08161388d565b81146138ab57600080fd5b50565b6000813590506138bd81613897565b92915050565b6000602082840312156138d9576138d861370d565b5b60006138e7848285016138ae565b91505092915050565b600073ffffffffffffffffffffffffffffffffffffffff82169050919050565b600061391b826138f0565b9050919050565b61392b81613910565b82525050565b60006020820190506139466000830184613922565b92915050565b61395581613910565b811461396057600080fd5b50565b6000813590506139728161394c565b92915050565b6000806040838503121561398f5761398e61370d565b5b600061399d85828601613963565b92505060206139ae858286016138ae565b9150509250929050565b6139c18161388d565b82525050565b60006020820190506139dc60008301846139b8565b92915050565b6000806000606084860312156139fb576139fa61370d565b5b6000613a0986828701613963565b9350506020613a1a86828701613963565b9250506040613a2b868287016138ae565b9150509250925092565b613a3e8161379c565b8114613a4957600080fd5b50565b600081359050613a5b81613a35565b92915050565b600060208284031215613a7757613a7661370d565b5b6000613a8584828501613a4c565b91505092915050565b600080fd5b600080fd5b7f4e487b7100000000000000000000000000000000000000000000000000000000600052604160045260246000fd5b613ad082613821565b810181811067ffffffffffffffff82111715613aef57613aee613a98565b5b80604052505050565b6000613b02613703565b9050613b0e8282613ac7565b919050565b600067ffffffffffffffff821115613b2e57613b2d613a98565b5b613b3782613821565b9050602081019050919050565b82818337600083830152505050565b6000613b66613b6184613b13565b613af8565b905082815260208101848484011115613b8257613b81613a93565b5b613b8d848285613b44565b509392505050565b600082601f830112613baa57613ba9613a8e565b5b8135613bba848260208601613b53565b91505092915050565b600060208284031215613bd957613bd861370d565b5b600082013567ffffffffffffffff811115613bf757613bf6613712565b5b613c0384828501613b95565b91505092915050565b600060208284031215613c2257613c2161370d565b5b6000613c3084828501613963565b91505092915050565b600081519050919050565b600082825260208201905092915050565b6000819050602082019050919050565b613c6e8161388d565b82525050565b6000613c808383613c65565b60208301905092915050565b6000602082019050919050565b6000613ca482613c39565b613cae8185613c44565b9350613cb983613c55565b8060005b83811015613cea578151613cd18882613c74565b9750613cdc83613c8c565b925050600181019050613cbd565b5085935050505092915050565b60006020820190508181036000830152613d118184613c99565b905092915050565b60008060408385031215613d3057613d2f61370d565b5b6000613d3e85828601613963565b9250506020613d4f85828601613a4c565b9150509250929050565b600067ffffffffffffffff821115613d7457613d73613a98565b5b613d7d82613821565b9050602081019050919050565b6000613d9d613d9884613d59565b613af8565b905082815260208101848484011115613db957613db8613a93565b5b613dc4848285613b44565b509392505050565b600082601f830112613de157613de0613a8e565b5b8135613df1848260208601613d8a565b91505092915050565b60008060008060808587031215613e1457613e1361370d565b5b6000613e2287828801613963565b9450506020613e3387828801613963565b9350506040613e44878288016138ae565b925050606085013567ffffffffffffffff811115613e6557613e64613712565b5b613e7187828801613dcc565b91505092959194509250565b600067ffffffffffffffff821115613e9857613e97613a98565b5b602082029050602081019050919050565b600080fd5b6000613ec1613ebc84613e7d565b613af8565b90508083825260208201905060208402830185811115613ee457613ee3613ea9565b5b835b81811015613f0d5780613ef98882613963565b845260208401935050602081019050613ee6565b5050509392505050565b600082601f830112613f2c57613f2b613a8e565b5b8135613f3c848260208601613eae565b91505092915050565b600060208284031215613f5b57613f5a61370d565b5b600082013567ffffffffffffffff811115613f7957613f78613712565b5b613f8584828501613f17565b91505092915050565b60008060408385031215613fa557613fa461370d565b5b6000613fb385828601613963565b9250506020613fc485828601613963565b9150509250929050565b600067ffffffffffffffff821115613fe957613fe8613a98565b5b602082029050602081019050919050565b600061400d61400884613fce565b613af8565b905080838252602082019050602084028301858111156140305761402f613ea9565b5b835b81811015614059578061404588826138ae565b845260208401935050602081019050614032565b5050509392505050565b600082601f83011261407857614077613a8e565b5b8135614088848260208601613ffa565b91505092915050565b600080604083850312156140a8576140a761370d565b5b600083013567ffffffffffffffff8111156140c6576140c5613712565b5b6140d285828601613f17565b925050602083013567ffffffffffffffff8111156140f3576140f2613712565b5b6140ff85828601614063565b9150509250929050565b7f4e487b7100000000000000000000000000000000000000000000000000000000600052602260045260246000fd5b6000600282049050600182168061415057607f821691505b6020821081141561416457614163614109565b5b50919050565b7f4552433732313a20617070726f76656420717565727920666f72206e6f6e657860008201527f697374656e7420746f6b656e0000000000000000000000000000000000000000602082015250565b60006141c6602c836137dd565b91506141d18261416a565b604082019050919050565b600060208201905081810360008301526141f5816141b9565b9050919050565b7f4552433732313a20617070726f76616c20746f2063757272656e74206f776e6560008201527f7200000000000000000000000000000000000000000000000000000000000000602082015250565b60006142586021836137dd565b9150614263826141fc565b604082019050919050565b600060208201905081810360008301526142878161424b565b9050919050565b7f4552433732313a20617070726f76652063616c6c6572206973206e6f74206f7760008201527f6e6572206e6f7220617070726f76656420666f7220616c6c0000000000000000602082015250565b60006142ea6038836137dd565b91506142f58261428e565b604082019050919050565b60006020820190508181036000830152614319816142dd565b9050919050565b7f4552433732313a207472616e736665722063616c6c6572206973206e6f74206f60008201527f776e6572206e6f7220617070726f766564000000000000000000000000000000602082015250565b600061437c6031836137dd565b915061438782614320565b604082019050919050565b600060208201905081810360008301526143ab8161436f565b9050919050565b7f455243373231456e756d657261626c653a206f776e657220696e646578206f7560008201527f74206f6620626f756e6473000000000000000000000000000000000000000000602082015250565b600061440e602b836137dd565b9150614419826143b2565b604082019050919050565b6000602082019050818103600083015261443d81614401565b9050919050565b7f4f776e61626c653a2063616c6c6572206973206e6f7420746865206f776e6572600082015250565b600061447a6020836137dd565b915061448582614444565b602082019050919050565b600060208201905081810360008301526144a98161446d565b9050919050565b7f57686974656c6973742069736e27742061637469766500000000000000000000600082015250565b60006144e66016836137dd565b91506144f1826144b0565b602082019050919050565b60006020820190508181036000830152614515816144d9565b9050919050565b7f4e6f20746f6b656e7320726573657276656420666f7220796f7572206164647260008201527f6573730000000000000000000000000000000000000000000000000000000000602082015250565b60006145786023836137dd565b91506145838261451c565b604082019050919050565b600060208201905081810360008301526145a78161456b565b9050919050565b7f43616e2774206d696e74206d6f7265207468616e207265736572766564000000600082015250565b60006145e4601d836137dd565b91506145ef826145ae565b602082019050919050565b60006020820190508181036000830152614613816145d7565b9050919050565b7f4e487b7100000000000000000000000000000000000000000000000000000000600052601160045260246000fd5b60006146548261388d565b915061465f8361388d565b9250827fffffffffffffffffffffffffffffffffffffffffffffffffffffffffffffffff038211156146945761469361461a565b5b828201905092915050565b7f43616e2774206d696e74206d6f7265207468616e206d617820737570706c7900600082015250565b60006146d5601f836137dd565b91506146e08261469f565b602082019050919050565b60006020820190508181036000830152614704816146c8565b9050919050565b60006147168261388d565b91506147218361388d565b9250817fffffffffffffffffffffffffffffffffffffffffffffffffffffffffffffffff048311821515161561475a5761475961461a565b5b828202905092915050565b7f57726f6e6720616d6f756e74206f66204554482073656e740000000000000000600082015250565b600061479b6018836137dd565b91506147a682614765565b602082019050919050565b600060208201905081810360008301526147ca8161478e565b9050919050565b60006147dc8261388d565b91506147e78361388d565b9250828210156147fa576147f961461a565b5b828203905092915050565b60006148108261388d565b91507fffffffffffffffffffffffffffffffffffffffffffffffffffffffffffffffff8214156148435761484261461a565b5b600182019050919050565b7f455243373231456e756d657261626c653a20676c6f62616c20696e646578206f60008201527f7574206f6620626f756e64730000000000000000000000000000000000000000602082015250565b60006148aa602c836137dd565b91506148b58261484e565b604082019050919050565b600060208201905081810360008301526148d98161489d565b9050919050565b7f4e487b7100000000000000000000000000000000000000000000000000000000600052603260045260246000fd5b7f4552433732313a206f776e657220717565727920666f72206e6f6e657869737460008201527f656e7420746f6b656e0000000000000000000000000000000000000000000000602082015250565b600061496b6029836137dd565b91506149768261490f565b604082019050919050565b6000602082019050818103600083015261499a8161495e565b9050919050565b7f4552433732313a2062616c616e636520717565727920666f7220746865207a6560008201527f726f206164647265737300000000000000000000000000000000000000000000602082015250565b60006149fd602a836137dd565b9150614a08826149a1565b604082019050919050565b60006020820190508181036000830152614a2c816149f0565b9050919050565b7f43616e27742072657365727665206d6f7265207468616e2073657420616d6f7560008201527f6e74000000000000000000000000000000000000000000000000000000000000602082015250565b6000614a8f6022836137dd565b9150614a9a82614a33565b604082019050919050565b60006020820190508181036000830152614abe81614a82565b9050919050565b7f53616c652069736e277420616374697665000000000000000000000000000000600082015250565b6000614afb6011836137dd565b9150614b0682614ac5565b602082019050919050565b60006020820190508181036000830152614b2a81614aee565b9050919050565b7f43616e206f6e6c79206d696e74206265747765656e203120616e64203320746f60008201527f6b656e73206174206f6e63650000000000000000000000000000000000000000602082015250565b6000614b8d602c836137dd565b9150614b9882614b31565b604082019050919050565b60006020820190508181036000830152614bbc81614b80565b9050919050565b7f4552433732314d657461646174613a2055524920717565727920666f72206e6f60008201527f6e6578697374656e7420746f6b656e0000000000000000000000000000000000602082015250565b6000614c1f602f836137dd565b9150614c2a82614bc3565b604082019050919050565b60006020820190508181036000830152614c4e81614c12565b9050919050565b600081905092915050565b6000614c6b826137d2565b614c758185614c55565b9350614c858185602086016137ee565b80840191505092915050565b6000614c9d8285614c60565b9150614ca98284614c60565b91508190509392505050565b7f4f776e61626c653a206e6577206f776e657220697320746865207a65726f206160008201527f6464726573730000000000000000000000000000000000000000000000000000602082015250565b6000614d116026836137dd565b9150614d1c82614cb5565b604082019050919050565b60006020820190508181036000830152614d4081614d04565b9050919050565b7f43616e206f6e6c79206d696e74206265747765656e203120616e64203220746f60008201527f6b656e73206174206f6e63650000000000000000000000000000000000000000602082015250565b6000614da3602c836137dd565b9150614dae82614d47565b604082019050919050565b60006020820190508181036000830152614dd281614d96565b9050919050565b7f4e487b7100000000000000000000000000000000000000000000000000000000600052601260045260246000fd5b6000614e138261388d565b9150614e1e8361388d565b925082614e2e57614e2d614dd9565b5b828204905092915050565b7f4552433732313a206f70657261746f7220717565727920666f72206e6f6e657860008201527f697374656e7420746f6b656e0000000000000000000000000000000000000000602082015250565b6000614e95602c836137dd565b9150614ea082614e39565b604082019050919050565b60006020820190508181036000830152614ec481614e88565b9050919050565b7f4552433732313a207472616e73666572206f6620746f6b656e2074686174206960008201527f73206e6f74206f776e0000000000000000000000000000000000000000000000602082015250565b6000614f276029836137dd565b9150614f3282614ecb565b604082019050919050565b60006020820190508181036000830152614f5681614f1a565b9050919050565b7f4552433732313a207472616e7366657220746f20746865207a65726f2061646460008201527f7265737300000000000000000000000000000000000000000000000000000000602082015250565b6000614fb96024836137dd565b9150614fc482614f5d565b604082019050919050565b60006020820190508181036000830152614fe881614fac565b9050919050565b7f4552433732313a20617070726f766520746f2063616c6c657200000000000000600082015250565b60006150256019836137dd565b915061503082614fef565b602082019050919050565b6000602082019050818103600083015261505481615018565b9050919050565b7f4552433732313a207472616e7366657220746f206e6f6e20455243373231526560008201527f63656976657220696d706c656d656e7465720000000000000000000000000000602082015250565b60006150b76032836137dd565b91506150c28261505b565b604082019050919050565b600060208201905081810360008301526150e6816150aa565b9050919050565b60006150f88261388d565b91506151038361388d565b92508261511357615112614dd9565b5b828206905092915050565b600081519050919050565b600082825260208201905092915050565b60006151458261511e565b61514f8185615129565b935061515f8185602086016137ee565b61516881613821565b840191505092915050565b60006080820190506151886000830187613922565b6151956020830186613922565b6151a260408301856139b8565b81810360608301526151b4818461513a565b905095945050505050565b6000815190506151ce81613743565b92915050565b6000602082840312156151ea576151e961370d565b5b60006151f8848285016151bf565b91505092915050565b7f4e487b7100000000000000000000000000000000000000000000000000000000600052603160045260246000fd5b7f4552433732313a206d696e7420746f20746865207a65726f2061646472657373600082015250565b60006152666020836137dd565b915061527182615230565b602082019050919050565b6000602082019050818103600083015261529581615259565b9050919050565b7f4552433732313a20746f6b656e20616c7265616479206d696e74656400000000600082015250565b60006152d2601c836137dd565b91506152dd8261529c565b602082019050919050565b60006020820190508181036000830152615301816152c5565b905091905056fea264697066735822122099a5f9d70ac398ab5684483cfdb160da232189912f163a3b65770e809defc03964736f6c63430008090033",
  "immutableReferences": {},
  "source": "// SPDX-License-Identifier: MIT\npragma solidity 0.8.9;\n\nimport '@openzeppelin/contracts/token/ERC721/extensions/ERC721Enumerable.sol';\nimport '@openzeppelin/contracts/access/Ownable.sol';\n\ncontract YunkieColection is ERC721Enumerable, Ownable {  \n    using Address for address;\n    \n    // Starting and stopping sale, presale and whitelist\n    bool public saleActive = false;\n    bool public whitelistActive = false;\n    bool public presaleActive = false;\n\n    // Reserved for the team, customs, giveaways, collabs and so on.\n    uint256 public reserved = 5;\n\n    // Price of each token\n    uint256 public initial_price = 0.02 ether;\n    uint256 public price;\n\n    // Maximum limit of tokens that can ever exist\n    uint256 public constant MAX_SUPPLY = 20;\n    uint256 public constant MAX_PRESALE_SUPPLY = 5;\n    uint256 public constant MAX_MINT_PER_TX = 2;\n\n    // The base link that leads to the image / video of the token\n    string public baseTokenURI = \"http://159.223.99.40/\";\n\n    // Team addresses for withdrawals\n    address public a1;\n    address public a2;\n    address public a3;\n\n    // List of addresses that have a number of reserved tokens for whitelist\n    mapping (address => uint256) public whitelistReserved;\n\n    constructor () ERC721 (\"Yunkie Colection\", \"YNK\") {\n        price = initial_price;\n    }\n\n    // Override so the openzeppelin tokenURI() method will use this method to create the full tokenURI instead\n    function _baseURI() internal view virtual override returns (string memory) {\n        return baseTokenURI;\n    }\n\n    // See which address owns which tokens\n    function tokensOfOwner(address addr) public view returns(uint256[] memory) {\n        uint256 tokenCount = balanceOf(addr);\n        uint256[] memory tokensId = new uint256[](tokenCount);\n        for(uint256 i; i < tokenCount; i++){\n            tokensId[i] = tokenOfOwnerByIndex(addr, i);\n        }\n        return tokensId;\n    }\n\n    // Exclusive whitelist minting\n    function mintWhitelist(uint256 _amount) public payable {\n        uint256 supply = totalSupply();\n        uint256 reservedAmt = whitelistReserved[msg.sender];\n        require( whitelistActive,                   \"Whitelist isn't active\" );\n        require( reservedAmt > 0,                   \"No tokens reserved for your address\" );\n        require( _amount <= reservedAmt,            \"Can't mint more than reserved\" );\n        require( supply + _amount <= MAX_SUPPLY,    \"Can't mint more than max supply\" );\n        require( msg.value == price * _amount,      \"Wrong amount of ETH sent\" );\n        whitelistReserved[msg.sender] = reservedAmt - _amount;\n        for(uint256 i; i < _amount; i++){\n            _safeMint( msg.sender, supply + i );\n        }\n    }\n\n    // Presale minting\n    function mintPresale(uint256 _amount) public payable {\n        uint256 supply = totalSupply();\n        require( presaleActive,                             \"Sale isn't active\" );\n        require( _amount > 0 && _amount <= MAX_MINT_PER_TX, \"Can only mint between 1 and 2 tokens at once\" );\n        require( supply + _amount <= MAX_PRESALE_SUPPLY,    \"Can't mint more than max supply\" );\n        require( msg.value == price * _amount,              \"Wrong amount of ETH sent\" );\n        for(uint256 i; i < _amount; i++){\n            _safeMint( msg.sender, supply + i );\n        }\n    }\n\n    // Standard mint function\n    function mintToken(uint256 _amount) public payable {\n        uint256 supply = totalSupply();\n        require( saleActive,                                \"Sale isn't active\" );\n        require( _amount > 0 && _amount <= MAX_MINT_PER_TX, \"Can only mint between 1 and 3 tokens at once\" );\n        require( supply + _amount <= MAX_SUPPLY,            \"Can't mint more than max supply\" );\n        require( msg.value == price * _amount,              \"Wrong amount of ETH sent\" );\n        for(uint256 i; i < _amount; i++){\n            _safeMint( msg.sender, supply + i );\n        }\n    }\n\n    // Admin minting function to reserve tokens for the team, collabs, customs and giveaways\n    function mintReserved(uint256 _amount) public onlyOwner {\n        // Limited to a publicly set amount\n        require( _amount <= reserved, \"Can't reserve more than set amount\" );\n        reserved -= _amount;\n        uint256 supply = totalSupply();\n        for(uint256 i; i < _amount; i++){\n            _safeMint( msg.sender, supply + i );\n        }\n    }\n    \n    // Edit reserved whitelist spots\n    function editWhitelistReserved(address[] memory _a, uint256[] memory _amount) public onlyOwner {\n        for(uint256 i; i < _a.length; i++){\n            whitelistReserved[_a[i]] = _amount[i];\n        }\n    }\n\n    // Start and stop whitelist\n    function setWhitelistActive(bool val) public onlyOwner {\n        whitelistActive = val;\n    }\n\n    // Start and stop presale\n    function setPresaleActive(bool val) public onlyOwner {\n        presaleActive = val;\n    }\n\n    // Start and stop sale\n    function setSaleActive(bool val) public onlyOwner {\n        saleActive = val;\n    }\n\n    // Set new baseURI\n    function setBaseURI(string memory baseURI) public onlyOwner {\n        baseTokenURI = baseURI;\n    }\n\n    // Set a different price in case ETH changes drastically\n    function setPrice(uint256 newPrice) public onlyOwner {\n        price = newPrice;\n    }\n\n    // Set team addresses\n    function setAddresses(address[] memory _a) public onlyOwner {\n        a1 = _a[0];\n        a2 = _a[1];\n        a3 = _a[2];\n    }\n\n    // Withdraw funds from contract for the team\n    function withdrawTeam(uint256 amount) public payable onlyOwner {\n        uint256 percent = amount / 100;\n        require(payable(a1).send(percent * 60));\n        require(payable(a2).send(percent * 30));\n        require(payable(a3).send(percent * 10));\n    }\n}",
  "sourcePath": "/home/dacool/Escritorio/Demo/NFTYunkieColection/contracts/YunkieColection.sol",
  "compiler": {
    "name": "solc",
    "version": "0.8.9+commit.e5eed63a.Emscripten.clang"
  },
  "schemaVersion": "3.4.4",
  "updatedAt": "2022-01-31T11:56:33.778Z",
  "networkType": "ethereum",
  "devdoc": {
    "kind": "dev",
    "methods": {
      "approve(address,uint256)": {
        "details": "See {IERC721-approve}."
      },
      "balanceOf(address)": {
        "details": "See {IERC721-balanceOf}."
      },
      "getApproved(uint256)": {
        "details": "See {IERC721-getApproved}."
      },
      "isApprovedForAll(address,address)": {
        "details": "See {IERC721-isApprovedForAll}."
      },
      "name()": {
        "details": "See {IERC721Metadata-name}."
      },
      "owner()": {
        "details": "Returns the address of the current owner."
      },
      "ownerOf(uint256)": {
        "details": "See {IERC721-ownerOf}."
      },
      "renounceOwnership()": {
        "details": "Leaves the contract without owner. It will not be possible to call `onlyOwner` functions anymore. Can only be called by the current owner. NOTE: Renouncing ownership will leave the contract without an owner, thereby removing any functionality that is only available to the owner."
      },
      "safeTransferFrom(address,address,uint256)": {
        "details": "See {IERC721-safeTransferFrom}."
      },
      "safeTransferFrom(address,address,uint256,bytes)": {
        "details": "See {IERC721-safeTransferFrom}."
      },
      "setApprovalForAll(address,bool)": {
        "details": "See {IERC721-setApprovalForAll}."
      },
      "supportsInterface(bytes4)": {
        "details": "See {IERC165-supportsInterface}."
      },
      "symbol()": {
        "details": "See {IERC721Metadata-symbol}."
      },
      "tokenByIndex(uint256)": {
        "details": "See {IERC721Enumerable-tokenByIndex}."
      },
      "tokenOfOwnerByIndex(address,uint256)": {
        "details": "See {IERC721Enumerable-tokenOfOwnerByIndex}."
      },
      "tokenURI(uint256)": {
        "details": "See {IERC721Metadata-tokenURI}."
      },
      "totalSupply()": {
        "details": "See {IERC721Enumerable-totalSupply}."
      },
      "transferFrom(address,address,uint256)": {
        "details": "See {IERC721-transferFrom}."
      },
      "transferOwnership(address)": {
        "details": "Transfers ownership of the contract to a new account (`newOwner`). Can only be called by the current owner."
      }
    },
    "version": 1
  },
  "userdoc": {
    "kind": "user",
    "methods": {},
    "version": 1
  }
}